:020000040800F2
:100000000000022095E60108E5E60108EDB20208CD
:10001000E5E60108E5E60108E5E601080000000064
:10002000000000000000000000000000E5E60108FC
:10003000E5E6010800000000E5E6010829B1020834
:10004000E5E60108E5E60108E5E60108E5E6010860
:10005000E5E60108E5E60108EDB1020801B2020893
:1000600015B2020829B202083DB20208E5E601080D
:10007000E5E60108E5E601089DB0020885B0020842
:10008000E5E60108E5E60108B5B00208E5E6010885
:10009000E5E60108E5E60108E5E6010851B20208D7
:1000A000F1B20208611E0208BDB202080DB30208D7
:1000B00019B3020825B3020831B30208E5E60108C6
:1000C000E5E6010875B102088DB10208BDB102086C
:1000D000E5E60108E5E60108E5E60108E5E60108D0
:1000E00081B20208E5E601085DB10208E5E6010813
:1000F000E5E60108E5E60108E5E60108E5E60108B0
:10010000E5E60108E5E601083DB30208E5E6010879
:10011000E5E60108E5E60108E5E60108E5E601088F
:1001200025B00208E5E601083DB00208E5E6010851
:10013000D5B202080000000000000000E5E601085A
:10014000E5E60108E5E60108E5E60108C1B00208B8
:1001500055B002086DB00208E5E60108D5B1020805
:10016000D9B00208A5B10208E5E60108E5E60108F4
:10017000E5E60108E5E601080000000000000000D7
:10018000E5E60108E5E601085354204D6F74696FF8
:100190006E41432076322E342E31000000000000E4
:1001A00000000000000000000000000076657220E2
:1001B000322E3100000000000AD7A33C022B073D7D
:1001C000CDCC4C3D8FC2753D295C8F3DCDCCCC3D17
:1001D000CDCC4C3E9A99993ECDCCCC3E0000003F10
:1001E000CDCC4C3F0000803F0000803F0000803FAE
:1001F0006666E63E3333B33E3333B33EA470BD3E52
:10020000CDCCCC3E9A99193F0000403F9A99993F36
:100210000000C03F0000004000000040000000005F
:100220000AD7A33C5839B43C8FC2F53C0AD7233DCA
:10023000CDCC4C3DCDCCCC3DCDCC4C3E9A99993ECD
:10024000CDCCCC3E0000003F6666663F0000803F9C
:100250000000803F0000803F6666863FCDCC8C3F2B
:100260003333933F9A99993F6666A63F9A99B93F6F
:10027000CDCCCC3F6666E63F000000400000204049
:1002800000004040000000000AD7A33B0AD7233CEF
:100290008FC2753C8FC2F53CCDCC4C3DCDCCCC3D16
:1002A000CDCC4C3E0000003F0000803F0000803F6E
:1002B0000000803F0000803FCCCCCC3F00000040DD
:1002C0000000A040000050410000EE4200C0154474
:1002D000003E9C460000803F0000803F0000803FC1
:1002E0006666863F3333933F0000C03F0000E03F27
:1002F0000000284100004A42008016430000000030
:100300000000003F0000803F00000040000040402F
:100310000000A040000020410000803FCDCC8C3F79
:100320009A99993F0000C03F000000400000404003
:100330000000A0404260653BD93DD93ED93DD93E41
:100340000000803F8104B53FCDCC4C3E5354204D3E
:100350006F74696F6E46582076322E342E3000004E
:10036000000000000000000000000000000000008D
:100370007400000050190008030000005019000824
:100380000300000000000000000000006100000009
:10039000B81B00080E000000B81B00080E0000008B
:1003A000C81B00080900000062000000D41B000800
:1003B00011000000D41B000811000000E81B000819
:1003C0000C00000073000000F81B00080B00000088
:1003D000041C000846000000E81B00080C00000098
:1003E000690000004C1C00080C0000005C1C0008A8
:1003F00031000000901C00080D0000006F0000009C
:10040000A01C00080C000000B01C00083100000017
:10041000E41C00080D00000064000000F41C00084B
:100420000D000000041D000832000000381D000807
:100430000E000000701A00080B000000701A00087F
:100440000B000000000000007C1A000804000000FF
:10045000841A000807000000070000008C1A00083A
:1004600004000000941A00080400000000000000CE
:100470009C1A0008060000009C1A000806000000F4
:1004800008000000A41A00080B000000A41A0008CD
:100490000B00000008000000B01A00080500000072
:1004A000B01A00080500000008000000B81A000893
:1004B0000A000000B81A00080A0000000800000046
:1004C000C41A00080D000000C41A00080D00000046
:1004D00000000000D41A000803000000D41A00082D
:1004E0000300000001000000D81A00080C00000002
:1004F000E81A0008080000000200000000000000E8
:1005000000000000000000000000000000000000EB
:10051000F41A000804000000F41A000804000000A7
:1005200003000000FC1A00080D000000FC1A00087F
:100530000D000000040000000C1B00080800000073
:100540000C1B00080800000000000000181B000839
:1005500011000000181B000811000000000000003E
:10056000000000000000000000000000000000008B
:10057000000000000000000000000000000000007B
:10058000000000000000000000000000000000006B
:100590000000000000000000000000002C1B00080C
:1005A000050000002C1B00080500000000000000F2
:1005B000341B00080E000000341B00080E00000071
:1005C000000000000000000000000000000000002B
:1005D0000000000000000000441B000804000000B0
:1005E000441B000804000000090000004C1B000828
:1005F000070000008C1A0008040000000000000042
:10060000541B000809000000F41A00080400000050
:1006100005000000601B000812000000601B0008BD
:1006200012000000060000002C1A00080300000061
:100630002C1A00080300000000000000741B0008D2
:1006400009000000741B0008090000000000000001
:10065000801B000809000000801B00080900000042
:10066000000000008C1B00080A0000008C1B000822
:100670000A00000000000000981B000804000000B1
:10068000981B00080400000008000000A01B0008E0
:1006900008000000A01B0008080000000000000087
:1006A000AC1B000808000000AC1B0008080000009C
:1006B00000000000481D00084C1D0008020000005A
:1006C00002000000501D0008541D00080100000039
:1006D00002000000581D00085C1D00080200000018
:1006E00002000000601D0008641D000801000000F9
:1006F00001000000681D0008641D000801000000E2
:1007000002000000581900086C1D000802000000DB
:1007100002000000701D0008741D000801000000A8
:1007200002000000781D00087C1D00080100000088
:1007300001000000801D0008841D00080200000068
:1007400002000000881D00088C1D00080800000041
:1007500001000000981D00089C1D00080100000019
:1007600001000000A01D0008A41D000806000000F4
:10077000010000005C190008AC1D00080100000029
:1007800002000000B01D0008B41D000801000000B8
:1007900002000000B81D0008BC1D00080200000097
:1007A00002000000C01D0008C41D00080100000078
:1007B00002000000C81D0008CC1D00080200000057
:1007C00002000000D01D0008D41D00080200000037
:1007D00002000000D81D00088C1C00080100000069
:1007E00002000000041A00086C1900080200000052
:1007F00002000000DC1D0008E01D000803000000EE
:1008000002000000A01A0008E41D00080200000019
:1008100002000000E81D0008EC1D000802000000B6
:1008200002000000F01D0008F41D00080100000097
:1008300002000000F81D0008FC1D00080200000076
:1008400002000000001E0008041E00080200000054
:1008500002000000081E00080C1E00080100000035
:1008600002000000101E00089C1D0008010000008E
:1008700002000000141E0008181E000802000000FC
:10088000010000001C1E0008201E000805000000DA
:1008900001000000281E00082C1E000802000000B5
:1008A00002000000701B00080C1E00080100000080
:1008B00001000000301E0008341E00080100000086
:1008C00001000000381E00083C1E00080300000064
:1008D00001000000401E0008441E00080200000045
:1008E00002000000481E00084C1E00080200000024
:1008F00002000000C41B0008501E00080100000098
:1009000002000000541E0008581E000802000000EB
:10091000020000005C1E0008601E000801000000CC
:1009200002000000641E0008681E000803000000AA
:10093000020000006C1E0008701E0008020000008B
:1009400001000000741E0008601E00080100000085
:100950000100000060190008781E00080200000075
:10096000020000007C1E0008801E0008010000003C
:1009700003000000841E0008881E0008020000001A
:10098000020000008C1E0008901E000803000000FA
:1009900002000000941E0008981E000801000000DC
:1009A000020000009C1E0008A01E000802000000BB
:1009B0000200000054190008A41E000807000000EF
:1009C00001000000AC1E0008A41E00080700000083
:1009D00001000000B01E0008B41E0008080000005E
:1009E00001000000C01E0008B41E0008080000003E
:1009F00001000000000000000000000000000000F6
:100A000000000000000000004FBB610567ACDD3F47
:100A1000182D4454FB21E93F9BF681D20B73EF3F25
:100A2000182D4454FB21F93FE2652F227F2B7A3C9D
:100A3000075C143326A6813CBDCBF07A8807703C56
:100A4000075C143326A6913C0000E0FE422EE63FF0
:100A50000000E0FE422EE6BF763C7935EF39EA3DF4
:100A6000763C7935EF39EABD000000000000E03F38
:100A7000000000000000E0BFFB21F93FFB2109401E
:100A80007CD91240FB2119407A6A1F407CD9224050
:100A9000BBFD2540FB2129403A462C407A6A2F4075
:100AA0005C4731407CD932409C6B3440BBFD3540C3
:100AB000DB8F3740FB2139401BB43A403A463C407B
:100AC0005AD83D407A6A3F404C7E40405C474140A6
:100AD0006C1042407CD942408CA243409C6B444005
:100AE000AC344540BBFD4540CBC64640DB8F47405C
:100AF000EB584840FB21494083F9A200444E6E0068
:100B0000FC291500D1572700DD34F50062DBC00059
:100B10003C999500419043006351FE00BBDEAB0061
:100B2000B761C5003A6E2400D24D42004906E0008C
:100B300009EA2E001C92D100EB1DFE0029B11C0019
:100B4000E83EA700F535820044BB2E009CE98400F6
:100B5000B4267000417E5F00D6913900538339007E
:100B60009CF439008B5F840028F9BD00F81F3B001E
:100B7000DEFF97000F980500112FEF000A5A8B0037
:100B80006D1F6D00CF7E360009CB2700464FB700A2
:100B90009E663F002DEA5F00BA277500E5EBC700AF
:100BA0003D7BF100F739070092528A00FB6BEA00A7
:100BB0001FB15F00085D8D00300356007BFC4600CE
:100BC000F0AB6B0020BCCF0036F49A00E3A91D0007
:100BD0005E619100081BE60085996500A0145F0026
:100BE0008D40680080D8FF0027734D000606310055
:100BF000CA561500C9A873007BE260006B8CC00068
:100C0000000FC93F000F494000CB9640000FC9407C
:100C10000053FB4000CB164100ED2F41000F49412E
:100C20000031624100537B41003A8A4100CB96413A
:100C3000005CA34100EDAF41007EBC41000FC94103
:100C400000A0D5410031E24100C2EE410053FB411A
:100C500000F20342003A0A420083104200CB1642DF
:100C600000141D42005C234200A5294200ED2F42E2
:100C700000363642007E3C4200C74242000F4942E5
:100C8000A2000000F9000000830000006E000000D8
:100C90004E00000044000000150000002900000084
:100CA000FC0000002700000057000000D1000000F9
:100CB000F500000034000000DD000000C00000006E
:100CC000DB000000620000009500000099000000B9
:100CD0003C000000430000009000000041000000C4
:100CE000FE0000005100000063000000AB000000A7
:100CF000DE000000BB000000C50000006100000035
:100D0000B7000000240000006E0000003A00000060
:100D1000420000004D000000D2000000E000000092
:100D200006000000490000002E000000EA0000005C
:100D300009000000D1000000920000001C0000002B
:100D4000FE0000001D000000EB0000001C00000081
:100D5000B100000029000000A70000003E000000D4
:100D6000E80000008200000035000000F5000000EF
:100D70002E000000BB0000004400000084000000C2
:100D8000E90000009C000000700000002600000048
:100D9000B40000005F0000007E0000004100000081
:100DA0003900000091000000D6000000390000006A
:100DB000830000005300000039000000F400000030
:100DC0009C000000840000005F0000008B00000019
:100DD000BD000000F9000000280000003B000000FA
:100DE0001F000000F800000097000000FF00000056
:100DF000DE00000005000000980000000F00000069
:100E0000EF0000002F000000110000008B00000028
:100E10005A0000000A0000006D0000001F000000E2
:100E20006D000000360000007E000000CF000000D2
:100E300027000000CB00000009000000B700000000
:100E40004F000000460000003F0000006600000068
:100E50009E0000005F000000EA0000002D0000007E
:100E60007500000027000000BA000000C700000065
:100E7000EB000000E5000000F10000007B00000036
:100E80003D0000000700000039000000F7000000EE
:100E90008A0000005200000092000000EA000000FA
:100EA0006B000000FB0000005F000000B1000000CC
:100EB0001F0000008D0000005D0000000800000021
:100EC0005600000003000000300000004600000053
:100ED000FC0000007B0000006B000000AB00000085
:100EE000F0000000CF000000BC0000002000000067
:100EF0009A000000F4000000360000001D00000011
:100F0000A9000000E3000000910000006100000063
:100F10005E000000E60000001B000000080000006A
:100F20006500000099000000850000005F000000DF
:100F300014000000A0000000680000004000000055
:100F40008D000000FF000000D800000080000000BD
:100F50004D00000073000000270000003100000079
:100F6000060000000600000015000000560000000A
:100F7000CA00000073000000A8000000C9000000C3
:100F800060000000E20000007B000000C0000000E4
:100F90008C0000006B000000020000000300000055
:100FA000040000000600000000000040FB21F93FA3
:100FB000000000002D44743E000000809846F83C7C
:100FC0000000006051CC783B00000080831BF039AA
:100FD0000000004020257A38000000802282E3369D
:100FE000000000001DF36935040000000700000048
:100FF000090000000000C93F0000F0390000DA37A6
:101000000000A2330000842E0000502B0000C227F5
:101010000000D0220000C41F0000C61B00004417BF
:10102000D01100202020202020202020202020203F
:1010300020202020303030303030303030303030F0
:1010400030303030000000000000000000000000E0
:101050000000000000000000000000000000000090
:101060000000000000000000000000000000000080
:101070000000000000000000000000000000000070
:101080000000000000000000000000000000000060
:101090000000000000000000000000000000000050
:1010A0000000000000000000050000001900000022
:1010B0007D00000000000000000000000000F03F84
:1010C0000000000000002440000000000000594023
:1010D0000000000000408F40000000000088C34076
:1010E00000000000006AF8400000000080842E41EB
:1010F00000000000D01263410000000084D7974137
:101100000000000065CDCD41000000205FA002423C
:10111000000000E876483742000000A2941A6D42B1
:10112000000040E59C30A2420000901EC4BCD642A4
:1011300000003426F56B0C430080E03779C341434F
:1011400000A0D8855734764300C84E676DC1AB43C5
:10115000003D9160E458E143408CB5781DAF1544E3
:1011600050EFE2D6E41A4B4492D54D06CFF08044BE
:10117000F64AE1C7022DB544B49DD9794378EA44D3
:101180000080E03779C34143176E05B5B5B8934683
:10119000F5F93FE9034F384D321D30F94877825A4F
:1011A0003CBF737FDD4F1575BC89D897B2D29C3C8C
:1011B00033A7A8D523F649393DA7F444FD0FA5323E
:1011C0009D978CCF08BA5B25436FAC642806C80A8C
:1011D000202020202020202020202020202020200F
:1011E00030303030303030303030303030303030FF
:1011F000000000003812000811920408119204083F
:1012000011920408119204081192040881DE010869
:10121000D9DE01080000000078160008401200081E
:101220000000000002000000E012000802000000C0
:101230003812000802040000C816000858120008FE
:1012400031395072696E7453657269616C526563AD
:101250006569766572000000313453657269616CAE
:10126000526563656976657200000000E01500084C
:1012700078120008181200083955534253657269F4
:10128000616C000000000000000000006C1200080B
:10129000A9DE01083DDF010835DF01088DDE010808
:1012A000EDDE010829DF0108C1DE01081DDF0108AC
:1012B00011DF0108CDDE0108FCFFFFFF6C12000802
:1012C0002DDF0108C5DE010821DF010815DF010857
:1012D000D1DE0108A1DE010809DF010800000000DD
:1012E000C81600080813000800000000E0120008FB
:1012F00011920408C5DF010811920408B9DF010842
:10130000E1DF010800000000355072696E740000D2
:10131000E01500081C130008181200083134486159
:1013200072647761726553657269616C00000000D8
:10133000000000001013000899E10108C5DF010852
:1013400099E20108F5DF01084DE0010811E001080C
:1013500031E0010841E00108E5E0010871E0010821
:10136000FCFFFFFF1013000839E00108DDE0010871
:1013700091E1010829E0010845E0010809E00108C0
:1013800069E00108000000000010024000020000B7
:1013900000010000001002400008000001010000F0
:1013A0000000024000800100020100000004024031
:1013B0000800010003010000000802404000020193
:1013C0000402000000080240800002000502000044
:1013D000000C02400010030006020000000C024056
:1013E000002003000702000000000240010004008A
:1013F0000802000000000240020004000902000090
:1014000000100240200005000A0300000010024006
:10141000400005000B0300004C17002000000000F6
:101420000000000004000000FFFF00001B0000009F
:1014300084180020000000000000000004000000EC
:10144000FFFFFFFF1C000000C41800200000000088
:101450000000000004000000FFFF00001D0000006D
:10146000001900200000000000000000040000003F
:10147000FFFF00001E000000881700200000000091
:101480000000000004000000FFFFFFFF320000002A
:101490003C180020000000000000000004000000D4
:1014A000FFFF000018000000253032580000000047
:1014B0000D0A0000253033642E2530326400000010
:1014C000253034580000000000000000D814000847
:1014D0001D88020829880208C8160008E0140008C0
:1014E000313243414E496E74657266616365000036
:1014F00043444320496E7465726661636500000071
:1015000043444320436F6E666967000030303030DB
:1015100030303030303031410000000053544D69DC
:1015200063726F656C656374726F6E6963730000DC
:1015300053544D3332205669727475616C20436F79
:101540006D506F727420284B61756169204C616227
:101550007329000000010100FFFF7F7FFFFF7F7FF5
:10156000FFFF7F7F646E6565646E776E64756E776E
:10157000657573656E7500000000800000008000D6
:1015800000008000000000000102030401020304C7
:1015900006070809000610160006101600000000D5
:1015A00000000000FFFFFFFF00000000000000003F
:1015B000FFFFFFFF0000000000000000000000002F
:1015C000FFFFFFFF0000000000000000FFFFFFFF23
:1015D00000000000000000000000000008160008E5
:1015E0001583040829830408BD950408C1950408DF
:1015F000DD92040841920408258204084D82040803
:10160000DD82040800000000E01500081416000840
:10161000F01600084E31305F5F637878616269765A
:101620003132305F5F73695F636C6173735F7479CC
:1016300070655F696E666F4500000000E015000888
:1016400048160008F01600084E31305F5F63787866
:10165000616269763132315F5F766D695F636C61BB
:1016600073735F747970655F696E666F4500000023
:10167000000000003C16000855870408698704082C
:10168000BD950408C1950408DD9204084192040840
:10169000F5850408858704082185040800000000FA
:1016A00070757265207669727475616C206D6574F1
:1016B000686F642063616C6C65640A000000000060
:1016C00000000000F01600080593040819930408B0
:1016D000BD950408C1950408DD92040841920408F0
:1016E00085920408A1920408799204080000000081
:1016F000E0150008FC160008B41700084E31305FF2
:101700005F637878616269763131375F5F636C61FE
:1017100073735F747970655F696E666F4500000072
:101720007465726D696E6174652063616C6C65646B
:10173000207265637572736976656C790A000000C2
:101740007465726D696E6174652063616C6C65644B
:10175000206166746572207468726F77696E6720A5
:10176000616E20696E7374616E6365206F662027F9
:1017700000000000270A00007465726D696E6174D4
:10178000652063616C6C656420776974686F75743B
:1017900020616E2061637469766520657863657089
:1017A00074696F6E0A000000202077686174282930
:1017B0003A202000C8160008BC170008537439747A
:1017C0007970655F696E666F0000000000000000C0
:1017D00000000000B4170008B1950408C99504087A
:1017E000BD950408C195040819960408C595040818
:1017F000C81600089818000800000000F01700083C
:101800001D9604086196040835960408000000003F
:10181000C8160008A8180008537431336261645F69
:10182000657863657074696F6E0000004E31305FDB
:101830005F637878616269763131395F5F666F72B4
:101840006569676E5F657863657074696F6E450082
:101850007374643A3A657863657074696F6E0000FA
:101860007374643A3A6261645F6578636570746941
:101870006F6E0000C81600082C1800080000000059
:1018800000000000C8180008299604084D960408B6
:101890004196040800000000537439657863657050
:1018A00074696F6E000000004E31305F5F637878BE
:1018B000616269763131355F5F666F726365645F5F
:1018C000756E77696E644500E01500081818000809
:1018D000F0170008000000000000000000190008D8
:1018E000599704086D9704084D97040800000000FC
:1018F0005374396261645F616C6C6F630000000057
:10190000E0150008F0180008F01700087374643A36
:101910003A6261645F616C6C6F6300005F474C4FBB
:1019200042414C5F0000000028616E6F6E796D6F60
:101930007573206E616D65737061636529000000C9
:10194000737472696E67206C69746572616C0000F3
:101950007374640073740000636C000064740000AE
:10196000707400004A417272617900005B5D000092
:10197000636F6E737472756374696F6E20767461D1
:10198000626C6520666F72200000000074797065DB
:10199000696E666F206E616D6520666F7220000053
:1019A0006E6F6E2D7669727475616C207468756ED9
:1019B0006B20746F20000000636F76617269616E46
:1019C000742072657475726E207468756E6B207405
:1019D0006F200000677561726420766172696162D0
:1019E0006C6520666F7220007265666572656E6355
:1019F000652074656D706F7261727920666F7220F8
:101A00000000000069780000203A2000756C00009A
:101A10006C6C0000756C6C0066616C736500000096
:101A20007472756500000000256C64002E2E2E0077
:101A3000676C6F62616C20636F6E73747275637430
:101A40006F7273206B6579656420746F20000000ED
:101A5000676C6F62616C2064657374727563746F18
:101A60007273206B6579656420746F20000000003C
:101A70007369676E6564206368617200626F6F6C82
:101A800000000000626F6F6C65616E0063686172D8
:101A9000000000006279746500000000646F7562E8
:101AA0006C6500006C6F6E6720646F75626C65001A
:101AB000666C6F61740000005F5F666C6F6174310B
:101AC00032380000756E7369676E65642063686103
:101AD00072000000696E7400756E7369676E6564EC
:101AE00020696E7400000000756E7369676E65642E
:101AF000000000006C6F6E6700000000756E736977
:101B0000676E6564206C6F6E670000005F5F696ED2
:101B10007431323800000000756E7369676E656459
:101B2000205F5F696E7431323800000073686F7235
:101B300074000000756E7369676E65642073686F6A
:101B400072740000766F696400000000776368615A
:101B5000725F74006C6F6E67206C6F6E67000000C0
:101B6000756E7369676E6564206C6F6E67206C6F4D
:101B70006E670000646563696D616C33320000005C
:101B8000646563696D616C36340000006465636987
:101B90006D616C313238000068616C6600000000D5
:101BA0006368617231365F740000000063686172BF
:101BB00033325F74000000007374643A3A616C6CF5
:101BC0006F6361746F720000616C6C6F6361746F3E
:101BD000720000007374643A3A62617369635F7300
:101BE0007472696E6700000062617369635F737489
:101BF00072696E67000000007374643A3A7374721D
:101C0000696E67007374643A3A62617369635F7303
:101C10007472696E673C636861722C207374643AF5
:101C20003A636861725F7472616974733C6368617E
:101C3000723E2C207374643A3A616C6C6F63617409
:101C40006F723C636861723E203E00007374643AB8
:101C50003A6973747265616D000000007374643AD0
:101C60003A62617369635F6973747265616D3C6345
:101C70006861722C207374643A3A636861725F74AD
:101C800072616974733C636861723E203E000000BB
:101C900062617369635F6973747265616D000000EE
:101CA0007374643A3A6F73747265616D000000007A
:101CB0007374643A3A62617369635F6F73747265D7
:101CC000616D3C636861722C207374643A3A636896
:101CD00061725F7472616974733C636861723E2003
:101CE0003E00000062617369635F6F7374726561C7
:101CF0006D0000007374643A3A696F7374726561C1
:101D00006D0000007374643A3A62617369635F69DD
:101D10006F73747265616D3C636861722C207374BB
:101D2000643A3A636861725F7472616974733C63A8
:101D30006861723E203E000062617369635F696F93
:101D400073747265616D0000614E0000263D0000F5
:101D5000615300003D000000616100002626000084
:101D60006164000026000000616E00002829000068
:101D7000636D00002C000000636F00007E00000017
:101D8000645600002F3D00006461000064656C65CE
:101D900074655B5D00000000646500002A000000BF
:101DA000646C000064656C65746500002E000000C2
:101DB000647600002F000000654F00005E3D0000CB
:101DC000656F00005E000000657100003D3D000091
:101DD000676500003E3D0000677400006C53000022
:101DE0003C3C3D003C3D00006C7300003C3C00006E
:101DF0006C7400003C0000006D4900002D3D0000A7
:101E00006D4C00002A3D00006D6900002D000000AF
:101E10006D6C00006D6D00002D2D00006E610000E6
:101E20006E65775B5D0000006E650000213D00007F
:101E30006E740000210000006E7700006E65770070
:101E40006F5200007C3D00006F6F00007C7C000042
:101E50007C000000704C00002B3D0000706C000006
:101E60002B000000706D00002D3E2A0070700000F5
:101E70002B2B0000707300002D3E000071750000D8
:101E80003F000000724D0000253D0000725300002D
:101E90003E3E3D00726D00002500000072730000A0
:101EA0003E3E000073697A656F662000737A000019
:101EB00061740000616C69676E6F6620000000004D
:101EC000617A00006173696E00000000657870003F
:101ED000737172740000000061636F73660000002C
:101EE00043000000494E4600696E66004E414E00B8
:101EF0006E616E0030313233343536373839414215
:101F00004344454600000000303132333435363723
:101F1000383961626364656600000000286E756C84
:101F20006C29000030000000496E66696E697479A2
:101F3000000000004E614E00504F53495800000011
:101F4000F8B500BFF8BC08BC9E467047F8B500BFA6
:101F5000F8BC08BC9E46704708B10181B0B000844F
:101F60000000000008B10181B0B000840000000052
:101F70003F160181B0AF81C900000000596D040017
:101F8000B0B0AA00FFFF010C1804000020044400B8
:101F90002C22000080C90181B0A908B10000000016
:101FA00080C90181B0A908B1000000003F2C018167
:101FB000B0AF86C9000000001D6D04008408B101A7
:101FC000B0B0B000FF0019010C020608010C0410AB
:101FD000051E0A000001007F00007D0000000000D7
:101FE0000000000008B10181B0B0008400000000D2
:101FF00008B10181B0B0008400000000D96C040079
:10200000B0AF0400FF001D01142404E201012A0402
:102010007001B2016C9E0200A602040000010000E3
:1020200000000000B16C0400A908B100FF000D0120
:10203000081E2E4E01540800007F0000C4F8FFFF68
:1020400000000000916C0400B0AF1400FF00190103
:10205000113E88040000F00404E40701F604A40221
:10206000000001000000000008B10181B0B0008450
:1020700000000000616C0400A908B100FF0011011C
:102080000A7A048C010192010800007F0000000020
:1020900000000000416C0400B0AA0100FF003501FF
:1020A0002538440000800104D201038A0118000091
:1020B000AE0104D20103CA013C0000A20218C00212
:1020C00000C4020400000200017D000000000000C6
:1020D00020F7FFFFA4B20181B0B0AF010000000003
:1020E00008B10181B0B000840000000008B1018196
:1020F000B0B000840000000008B10181B0B00084DD
:0421000000000000DB
:10210400443F010001000000BC3F0100B0A902806F
:1021140084400100B0B0A880E4400100B4FFFF7F18
:10212400D0410100B0B0AA80F841010001000000D4
:102134008C420100B0AF0A80D045010001000000CC
:10214400D4450100AE3F2780B449010001000000DE
:10215400B0490100AB10B280184A01000100000030
:10216400244A0100A908B180584A01000100000076
:102174006C4A010068FFFF7F744A0100AB26B280FD
:10218400FC4A010001000000D44C0100B0A8038007
:10219400E84C010001000000E44C0100B0AE0380F3
:1021A400EC4F0100B0A90480105001003CFFFF7FF8
:1021B4001450010040FFFF7F205001000100000087
:1021C400DCBC0100B0B0B080DCBC0100B0A8018070
:1021D400ECBC010001000000E8BC0100B0B0B0801C
:1021E400E8BC010001000000E4BC0100B0B0B08014
:1021F400E4BC0100010000000CBD0100B0B0B080DF
:102204000CBD01000100000008BD0100B0B0B080A9
:1022140008BD01000100000004BD0100B0B0B080A1
:1022240004BD01000100000000BD0100B0B0B08099
:1022340000BD01000100000000BD0100A908B1803B
:1022440014BD01000100000038BD010008FDFF7F3E
:102254004CBD01000100000068BD0100A908B18067
:102264007CBD0100010000009CBD0100B0B0B08045
:102274009CBD010001000000ACBD0100B0B0B08005
:10228400ACBD010001000000ACBD0100B0B0B080E5
:10229400ACBD010001000000A8BD0100B0B0B080D9
:1022A400A8BD010001000000BCBD0100B0B0B080B9
:1022B400BCBD01000100000020BE0100B0B0B08030
:1022C40020BE0100A908B180C4BE0100B0B0B08036
:1022D400C4BE0100B0AC0180BCBF0100B0B0AC8092
:1022E400E4C00100B0B0AA8064C10100A908B180B3
:1022F40010C20100B0B0A880ACC20100010000000F
:102304007CFC0100B0B0A8800CFD010001000000BD
:1023140058130200A908B180DC1302000100000078
:1023240008140200008402803414020034FCFF7F8D
:102334005C140200B0AE078044180200B0B0A8805C
:1023440060180200B0AA1780A41A0200B0B0A880D6
:10235400D81A0200A908B180681B0200010000001D
:10236400AC1B0200B0AA0180E01C020001000000C6
:10237400F41C0200A908B180FC1D0200B0B0A880C2
:102384009C1E0200B0AF048070210200B0B0AA808D
:1023940068220200B0B0A88098220200D0FBFF7F20
:1023A400483D020001000000E8410200AB08B18092
:1023B400D0420200B0AF2080D8490200B0B0AA8059
:1023C400444A0200B0AF0480644C020001000000E3
:1023D400C44C0200B0B0AA80804D0200AB08B180AA
:1023E40020570200B0B0AC8010580200AB08B18096
:1023F400F8590200B0B0AA80BC5A0200B0AF0680FF
:10240400285D02000100000030640200B0B0AA8020
:1024140094640200B0AF0680F86702000100000077
:1024240000680200B0AB028068680200B0AE0180B0
:102434006C690200B0B0A880AC690200B0AC018045
:10244400E06A0200B0A90280146B0200B0A8018007
:10245400606B0200AD08B180CC6C0200AB08B180A7
:10246400646D0200B0AF02801C6E0200AB08B18044
:10247400A46E0200B0B0AC806C6F0200B0AF0E80EE
:10248400D8720200010000007C740200B0AA01802E
:10249400D0740200E4FAFF7F24750200B0AF1E80FE
:1024A4001C7B0200B0AF0A8030800200B0AF048011
:1024B400F482020001000000409F0200B0AD0280DF
:1024C400D89F0200B0AF0A8088A10200B0A904809E
:1024D400C4A10200B0AE01806CA2020001000000A1
:1024E40088A20200B0AD10805CA4020001000000CC
:1024F400A0A60200AB08B18054A70200B0AD3080A2
:10250400D0AB020001000000E0AB020000840280B6
:1025140034AD0200B0AB0C800CAE02000100000030
:10252400F0AF0200B0AA01801CB10200010000005B
:1025340038B10200B0AA0180ACB10200B0AC07808F
:102544002CB302004CFAFF7F60B4020050FAFF7F04
:10255400E4B50200B0AF14808CBC0200B0A90680C0
:10256400D4BE0200B0A90480E0C002000100000053
:1025740008C10200A908B18084C102002CFAFF7FBF
:102584004CDE020001000000F4E10200B0AB048064
:10259400A8E202000100000050E30200B0AB288072
:1025A4005CE4020001000000C0EF0200B0AF0A804A
:1025B40048F1020001000000AC5A0400B0AC0180F4
:1025C400745B040001000000585C0400AB08B18097
:1025D400785C0400B0AF0680005D0400B0AA0380FC
:1025E400305D0400B0B0A880585D0400C8F9FF7FD6
:1025F400785D040001000000805D0400E4F9FF7FC1
:10260400805D0400E8F9FF7F8C5D04000100000098
:10261400DC5D0400E4F9FF7F045F0400B0AF0280D6
:10262400D05F0400B0AF088028610400B0B0A88077
:1026340050610400B0AF108078640400E4F9FF7FB7
:10264400D06404000100000004650400B0AC038001
:10265400A8650400B0B0A880EC650400AB08B180A4
:1026640070660400DCF9FF7F546A0400B0B0A880EF
:10267400986A0400AB08B180106B0400B0B0A88065
:10268400806B040001000000846B0400D8F9FF7F14
:10269400946B040001000000A46B0400B0AA038042
:1026A400D46B040001000000D86B0400A908B180B9
:1026B400EC6B0400B0AB0280206C0400AB08B1806A
:1026C400406C0400B0B0A880686C0400A4F9FF7FDB
:1026D400FC6C0400010000008C6D0400B4F9FF7F61
:0826E400CC6E040001000000AF
:1080000041F65853C2F200031A780AB901201870D9
:10801000704700BF41F65850C2F2000008B503682F
:108020002BB140F20003C0F2000303B1984708BD32
:108030001EB440F0B9F81EBC0EF0B0FE70B44C1E79
:10804000402C28D8DFE804F03A3A3A3A2727272785
:1080500036363A36363636363636363636272323F1
:10806000232323233A3636363636273623213A273A
:108070003A23232727363A3A3A3A3A3A3A3A363ABC
:1080800027273636362727273600002B25D0446988
:108090008569AC4202DB002070BC704704EB4406EB
:1080A000056901344461B40028191EBF4260295596
:1080B0008360F1E7002AEAD11046EDE7D2F101042E
:1080C00038BF0024002B08BF44F00104002CE2D18B
:1080D00044698569AC42DEDAE0E71846DCE700BFB8
:1080E00030B443698469A34211DA046903EB4305A0
:1080F0000133436114EB850014BF002301230029E1
:1081000008BF43F0010353B962B9104608E00123E8
:108110000020002908BF43F00103002BF4D0002009
:1081200030BC7047037041608260F9E7F8B51646CD
:10813000C26804460D46137813E04B2B34D1E76038
:10814000236B002E0CBF19211C219A1D22630022D3
:1081500020461346FFF772FF286020B3E268051D32
:108160001378A3F17200A3F15607414241EB0001DD
:10817000D7F1000C4CEB070050EA010702F10107B0
:10818000DBD00132E26089B1236B0022002E0CBFEC
:1081900017211A212046093323631346FFF74EFFA8
:1081A00028600028DAD105462846F8BD0028C7D047
:1081B000206B002E0CBF18211B2109302063C6E75D
:1081C000C26803462DE9F0011078532803D000203F
:1081D000BDE8F0017047501CD8605278002A68D181
:1081E0009868C0F3C00080F0010C00290CBF002487
:1081F0000CF001043CB1DC6821784339C8B2012895
:108200008CBF00200120742A00F0A08040F2703161
:10821000C0F6000191F81CC0944500F0958091F8DB
:108220003840944200F0998091F854C0944500F091
:10823000928091F87040944200F0968091F88CC042
:10824000944500F08F8091F8A8409442BFD1A831A6
:108250004E69002E00F083805A699C69D1F818801D
:10826000A2426EDA02EB4207D3F810C001325A6123
:10827000BF001CEB070505D06E601626C5F8088008
:108280000CF80760DD62002858D0CD680969186BCA
:108290009442084418639ADD02EB42001C690132E3
:1082A0005A618300E01893D016224560E254816041
:1082B0008EE7A2F15F0CA2F13004DCF1000545EB82
:1082C0000C055FFA84FC0130D860BCF1090F8CBF4B
:1082D000284645F00100002848D05F2A2CD0002114
:1082E00001EBC10CE4B2A2F14106092C02EB8C00B7
:1082F0000246F6B2A0F1300004D9192EA2F13700DF
:108300003FF665AF814201463FF661AFDA68541C23
:10831000127812B15F2ADC6002D0A2F13004DFE7EC
:108320000130196A8842BFF452AFD9699A6A51F88C
:10833000200001329A624BE70020F2E74D6889681D
:10834000A5E70025DD629EE71C3181E740F2703130
:10835000C0F600017CE754317AE7383178E75A6992
:108360009C6990E78C3173E7703171E7A2F14105A8
:10837000EDB2192D3FF634AF0146B1E738B50C46E2
:108380000546002973D02378412B22D8DFE803F07B
:1083900058212121212C5827272121212121212148
:1083A0002121212121215821212121212121212186
:1083B0002121215821212121212121215827212139
:1083C0002121212121212121215821212121212166
:1083D000215861682846FFF7D1FF00283AD1A468E8
:1083E000002CD0D1204638BDD5F8140100283AD051
:1083F0004068626883682BB393F800C0BCF12B0F10
:108400001ED1002A35DD9B68013A02F00100CBB194
:1084100093F800C0BCF12B0F12D1E2B120B19B68E0
:10842000013A53B90EE0B2B19B68013A53B11978E1
:10843000013A2B2904D19B6823B118782B28F2D05C
:10844000002038BD0121002A0CBF0A4641F001027C
:108450000AB1002038BD58680028FBD003782B2BC8
:1084600018BF002038BD0121C5F81C1138BD0846D1
:1084700038BD0021E7E700BFF0B50746506883B07C
:1084800096681446431C0D465B18B3420DD9D2685A
:10849000002A1ED003B0F0BD02262068314610F03D
:1084A00033FB034600B32060A660E668002EF1D1DE
:1084B00020682A4663683946C01810F029F92268F6
:1084C000616802EB050C0CF8016060684519656095
:1084D000E0E716B9022BDFD902267600B342DCD9D9
:1084E0007600B342F9D8D8E7206801930FF0D2FDA7
:1084F000019B0121E16023606360A360CAE700BFC4
:10850000026830B4044613786E2B1BD00025A3F10B
:108510003000C2B2092A1AD8216800204A1C00EB98
:10852000800C226003EB4C0012F8013B3038A3F1C1
:1085300030015FFA81FCBCF1090FF0D905B140426E
:1085400030BC7047531C012503605378DFE70020DF
:10855000F4E700BF38B5044621B9C368197839B1CA
:108560000133C360682914D0762903D0002038BDB8
:10857000084638BD04F10C052846FFF7C1FFE36843
:108580001A785F2AF2D1591C2846E160FFF7B8FF3C
:1085900003E004F10C00FFF7B3FFE36818785F28ED
:1085A00001D0002038BD01330120E36038BD00BF99
:1085B000C26810B5044613785F2B04D06E2B06D129
:1085C0004FF0FF3010BD00200132E26010BD0C30D2
:1085D000FFF796FFE26813785F2B02D04FF0FF3071
:1085E00010BD0130F0E700BFC36810B504461A782B
:1085F000542A01D0002010BD0133C360FFF7D8FF1B
:10860000031EF7DBA06A6269A1690130A0628A4299
:1086100001DB002010BD02EB4200216901326261E2
:1086200082008818F6D0436005238B5410BD00BF2C
:1086300008B5C3681A785F2A01D0012008BD01334C
:1086400040F80C3FFFF75CFFC043C00F08BD00BF00
:1086500070B504460C30FFF753FF051E34DDE668A5
:108660006068831B9D422CDCA2687319E36012F0E2
:10867000040F04D0715D242901D10133E360092D79
:1086800018DD41F61C113046C0F60001082210F03A
:108690000DF878B9337A06F10801A3F12E0EDEF158
:1086A000000C4CEB0E005F2B08BF40F0010068B9D6
:1086B000242B0BD0204631462A46FFF711FDE062FD
:1086C00070BD0020E06270BD002070BD4A784E2A67
:1086D000F0D1236B41F628112046C0F60001163375
:1086E00015225D1B2563FFF7FBFCEBE7C268F0B5C5
:1086F0000446137883B0A3F1720CDCF1000040EB68
:108700000C01562B08BF41F00101002952D14B2B1F
:1087100050D0A3F130054A2D6AD8DFE815F0750076
:1087200075007500750075007500750075007500A1
:1087300075006900690069006900690069006900E5
:10874000D4016900AF013D016900BD012F0169003D
:1087500069006900690069000502750021011301C3
:1087600069000501E000BD00AB0069006900690017
:1087700069007500690069006900690069006900A5
:108780009500950095009500950095009500950041
:108790009500950069009500950095009500690089
:1087A0006900690095009500870095009500950087
:1087B00095009500204601A90022FFF7B7FC054669
:1087C000C0B9284603B0F0BD204601F001FA3B21B4
:1087D000002302462046FFF731FC054601900028A1
:1087E000EFD0E26813781BB1501C452BE060E8D055
:1087F0000025E6E72046FFF779FF286005460028B8
:10880000DFD0019D3DB9DCE7204600F05BFD054669
:108810000190002DD5D0236A626A9342E8DAE169BB
:10882000581C41F82350019D2062CAE7551C204680
:10883000E560FFF70DFF2421002302462046FFF7E5
:10884000FDFB05460190E4E7B64903EB830311EB1A
:10885000830300F0A1826169A0698142C0F2718244
:1088600000231D465B685868511C236BE1601A1891
:108870002263A6E7511C2046E160FFF7E9FE019064
:108880002046FFF733FF1D21019B02462046FFF7DC
:10889000D5FB05460190BCE72046FFF7A5FEE3683F
:1088A0000190054693F800C0BCF1490FB1D10028F2
:1088B00087D0236A606A83429ADAE16920465A1CAB
:1088C00041F82350019D226200F0A4FC2A460421B5
:1088D00003462046FFF7B2FB0546019099E753781F
:1088E000A3F15F01A3F130004A4242EB010C5FFAB1
:1088F00080FEBEF1090F8CBF65464CF0010525B91D
:10890000413BDBB2192B00F22F8200212046FFF7FA
:1089100057FCE2680190054692F800C0BCF1490F8F
:108920007FF44FAF2046CFE7531C2046E360FFF7AC
:10893000DDFE1F21002302462046FFF77FFB054690
:10894000019066E7511C2046E160FFF7CFFE1E2133
:10895000002302462046FFF771FB0546019058E7C9
:10896000551C2046E560FFF7C1FE2021002302468A
:108970002046FFF763FB054601904AE7551C204659
:10898000E560FFF7B3FE2221002302462046FFF7F1
:1089900055FB054601903CE7531CE3605578002DDC
:1089A0003FF40FAF463D5A1CE260302D3FF620AF3A
:1089B00001A151F825F000BF8B8C0008F187000859
:1089C000F1870008F1870008F1870008F1870008A7
:1089D000F1870008F1870008F1870008F187000897
:1089E000F1870008F1870008F1870008F187000887
:1089F000C9870008F1870008F1870008F18700089F
:108A0000F1870008F1870008F1870008F187000866
:108A1000F1870008F1870008F1870008F187000856
:108A2000F1870008F1870008F1870008F187000846
:108A3000658C00083D8C0008178D0008F187000840
:108A4000F38C0008158C0008F1870008F1870008F6
:108A5000F1870008F1870008F1870008F187000816
:108A6000FF8B0008F1870008F1870008CF8B000812
:108A7000C9870008F1870008758B0008013220467D
:108A8000E260FFF733FE2121002302462046FFF774
:108A9000D5FA05460190BCE6531CE36092F801E06C
:108AA000BEF1590F00F07D810121204600F0FAF956
:108AB000E36893F800C0BCF1450F054600F03D8126
:108AC00000250195A5E6511CE16053785F2B00F06D
:108AD0007B81303BDBB2092B00F25581931CE360B4
:108AE0001A4613F8010B3038C5B2092DF7D92046C4
:108AF000521AFFF7F5FA05460028E2D0E16891F82E
:108B000000E0BEF15F0FDBD101312046E160FFF7ED
:108B1000EDFD2A46262103462046FFF78FFA05463B
:108B2000019576E6A0FCFF07561C2046E6606D46E0
:108B3000FFF7DCFD6946012206462046FFF7F6FAFC
:108B4000074610B90546019563E62046FFF7CEFDBE
:108B500038600028F6D0AF4203D00278252A40F0D2
:108B60003581204627213246009BFFF767FA0546EC
:108B700001954EE65B785F2B00F01C816169A0696E
:108B80008142BFF635AE01EB4105226901316161D9
:108B9000AB00D5183FF415AE3A2104F10C00D154C6
:108BA000FFF7AEFC6860E36893F800E0BEF15F0F8A
:108BB0007FF41EAE01332046E360FFF797FD2A469F
:108BC000292103462046FFF739FA0546F9E563698E
:108BD000A1698B4280F2C48003EB43052169013314
:108BE0006361AB00CD1800F00081814A2320C85496
:108BF00013466A60226B5B68D1182163E1E5204669
:108C0000FFF774FD4121002302462046FFF716FAC4
:108C10000546D6E56369A1698B4280F2A18003EB2A
:108C2000430521695A1C6261AB00CD1800F0DD805C
:108C3000704A2320C85413466A60DBE76369A16960
:108C40008B4280F28D8003EB430521690133636120
:108C5000AB00CD1800F0C980674A2320C8541346E2
:108C60006A60C7E76369A1698B4279DA03EB430560
:108C7000216901336361AB00CD1800F0B6805F4A13
:108C80002320C85413466A60B4E76269A569AA4202
:108C900080F2858002EB420C2069511C616100EB7F
:108CA0008C050195282028705A78303AD3B2092BC8
:108CB0008CBF002301232B81002B75D12046FFF7A9
:108CC00015FD6860019D6D68002D3FF47AAD04F1DB
:108CD0000C00FFF715FCE26813783BB1A3F1730CAD
:108CE000511CDCF1000EE1604EEB0C03019D6B8129
:108CF00067E56369A1698B4232DA03EB43052169B9
:108D000001336361AB00CD186FD03D4A2320C854B6
:108D100013466A606EE76369A269934220DA03EB47
:108D20004305216901336361AB00CD185DD0354A3D
:108D30002320C85413466A605CE7581C0195E06024
:108D400067E501EB4105206901316161A900451822
:108D500008BF6B683FF487AD23266B60465482E5FD
:108D600000231D465B6845E7204600F0ABFA054648
:108D7000019000283FF425AD90F800E0BEF1160FF9
:108D80007FF449AD1DE5204600F022FF054600288E
:108D90007FF4B4AE01953CE55B68002563E50025F2
:108DA0007FE75A1CE2607FE604F10C00FFF7A8FBA6
:108DB000019D83E701322046E26000F009FF05468D
:108DC00000287FF4F0AEFCE400259DE6009D002D18
:108DD0003FF477AE236A606A8342BFF671AEE16901
:108DE0005A1C41F823502262BBE66B6802E700BFC1
:108DF0008C060008A006000864060008500600085B
:108E0000780600083C06000870B5044682B00020D1
:108E1000E268019092F800C0ACF145014B4243EB8F
:108E20000102844514BF134642F001030BBB01AE9F
:108E300014E0FFF703F93060D8B1E36800F10806E9
:108E400093F800E0DEF1010C38BF4FF0000CBEF1EA
:108E5000450F14BF60464CF0010060B92046FFF793
:108E600045FC2A210023054620462A46002DE0D154
:108E7000284602B070BD01980028FAD08368002B04
:108E8000F7D1426811782329F3D1526892F810E0A3
:108E9000BEF1090FEDD1216B52688A1A226343603B
:108EA000E7E700BFC26870B5044613784A2B0DD0BF
:108EB0000D4669B92046FFF7A7FF034678B1204663
:108EC00025212A46BDE87040FFF7B8B80132C260DC
:108ED0002046FFF70BFC05460028EBD170BD70BDA6
:108EE000C3682DE9F04704461F78B8467FB15A1C85
:108EF000C26093F80180B8F1000F01D0991CC160E5
:108F0000762F29D1A8F13005EBB2092B3DD940F2DB
:108F1000703C3425C0F6000C00230CF55179E91A99
:108F200001EBD17003EB600002010CEB02064A4436
:108F3000D6F844130E78B7420AD1497888453BD019
:108F4000414507D8431CAB42E9D10020BDE8F0877A
:108F5000BE42F7D90546F6E7A7F16301D1F1000C4F
:108F60004CEB0102B8F1760F14BF002202F00102AF
:108F7000002ACCD02046FFF7B9FB2E210023024661
:108F80002046BDE8F047FFF759B82046FFF760FBE1
:108F900063690146A0698342D7DA03EB4300226983
:108FA000013363618300D01818D0C9B12D24456006
:108FB000D4548160BDE8F0876369A06983420CDA0C
:108FC00003EB43002169013363618300C81805D0B6
:108FD00042602C22CA54BDE8F0870020BDE8F0872B
:108FE0000846BDE8F08700BFC2682DE9F04104469D
:108FF0001378A3F1300C5FFA8CF109291BD9A3F186
:10900000610C5FFA8CF119290DD9A3F143015FFAC4
:1090100081FCBCF1010F23D94C2B10D0552B54D01F
:109020000020BDE8F081FFF75BFF10B103782C2B27
:109030000ED0BDE8F081BDE8F041FFF709BB551C3B
:10904000C560FFF705FB054600286AD1BDE8F08141
:109050004168226B8B68D118CA1D2263BDE8F0817C
:10906000C16A21B10878002829D0162827D0432BBF
:1090700033D0442BD4D15378312B65D0322B65D0EB
:10908000302BCDD1012563690232A069E2608342B1
:1090900053DA206903EB430C0133636110EB8C005E
:1090A00014BF00230123002908BF43F00103002B54
:1090B000B6D10822057102708160BDE8F0818B682D
:1090C000206BC01820631378D1E75378511C6C2BA8
:1090D00067D0742B3CD00020ABE75378322B31D0D3
:1090E000332B2DD0312B9BD1012563690232A0692E
:1090F000E26083421EDA206903EB430C01336361B3
:1091000010EB8C0014BF00230123002908BF43F09B
:109110000103002B84D10722057102708160BDE834
:10912000F0812046FFF784FA002814BF284600206B
:10913000BDE8F08101230020E7E701230020B2E72A
:109140000325D2E70225D0E702259CE703259AE70D
:10915000C1605378742B7FF463AF4E1CC660FFF779
:1091600027FA061EFFF65CAF6369A1698B42BFF662
:1091700057AF0C205A1C626100FB03F2216988186A
:109180003FF457AF236A4027656A8F54AB4246606D
:10919000BFF646AFE1695A1C41F823002262BDE8E0
:1091A000F081C16092F801C0BCF16C0F7FF438AF60
:1091B0004E1CC660FFF728FE064600283FF446AF67
:1091C000E36893F800E0BEF1450F7FF429AF5F1C20
:1091D0002046E760FFF7ECF9071EFFF621AF636951
:1091E000A1698B42BFF61CAF0C205A1C626100FBC8
:1091F00003F2216988183FF41CAF236A4FF03E0C3C
:10920000656A01F802C0AB4246608760BFF608AFEE
:10921000C0E700BFC26870B50446137882B0C66A62
:10922000492B02D0002002B070BD531CC36051789E
:10923000452909D1002201332B21C360134602B016
:10924000BDE87040FEF7FABE002202AD4C2945F899
:10925000042D19D0582921D049291AD02046FFF7CA
:1092600045FA0246002A2BD020462B210023FEF788
:10927000E5FE28600028D6D0E368197845291AD081
:109280004C2900F10805E5D1204600F03DFC0246DE
:10929000E8E72046FFF7BEFF0246E3E7013320463A
:1092A000E36000F095FCE368197845290246B9D1DE
:1092B000581CE060D6E75A1CE662E2600198B2E70B
:1092C0001046B0E7C368F0B504461A7883B04C3A4C
:1092D0000E2A2ED8DFE802F0272D432D2D2D2D0844
:1092E0002D272D2D2D2D910093F801E0BEF1740F47
:1092F00000F08F800021FEF763FF01220646E3683D
:1093000093F800C0BCF1490F10D1002A00F09A80F8
:109310002046FFF77FFF3246042103462046FEF732
:109320008DFE064602E0FFF75FFE0646304603B0BC
:10933000F0BDFFF759FEE36893F800C0BCF1490F98
:109340000646F3D10028F1D0236A616A8B425EDAC7
:10935000E1695A1C204641F823602262D9E70133B3
:1093600001A9C3600122FEF7E1FE06460028DDD018
:10937000E36800271D78002D3BD0A5F1300EA5F144
:10938000610C5FFA8EF05FFA8CF109288CBF002027
:109390000120192998BF40F00100002840F0968074
:1093A000A5F14301484240EB0102442D08BF42F0C1
:1093B0000102002A40F08A80A5F1550CDCF1000E74
:1093C0004EEB0C024C2D08BF42F00102002A7DD169
:1093D000532D00F0A780492D00F0AF80542D00F0F0
:1093E000A780452D00F0B4804D2D02D1002F40F014
:1093F000928000203060064698E75D1C0021C56021
:1094000000F0CEF8E3681A78452A054627D00026F2
:109410008CE741F650119D1C0322C0F60001C56087
:10942000FEF75EFE05462046FFF7DEFD01212A46D7
:1094300003462046FEF702FE00220646206BC11CB2
:1094400021635CE7002E3FF471AF236A616A8B42AF
:109450005FDAE0695A1C40F82360226258E7591C21
:10946000E1605A78732A00F08980642A18BF4FF0AF
:10947000FF3679D02046FFF725FF074650B1037825
:109480003E2B07D0402B05D02046FFF7D1F800280F
:109490003FF44BAFB6F1FF3F08BF3B460FD06369C7
:1094A000A069834252DA03EB43022169013363610D
:1094B00092008B1803D09E603F265F608E5420463A
:1094C00002212A46FEF7BAFD06462FE72046FFF79F
:1094D0008BFD0346DFB101213A462046FEF7AEFD83
:1094E0000746532D1BD0E3681D78452D3FF445AF4B
:1094F000002F3FF47EAF226A606A8242BFF679AFE6
:10950000E169551C41F8227025621D7833E71F463A
:10951000E7E716460AE70133E3601D782BE7E368C7
:109520001D7828E720460121FEF74AFE0346D1E7D1
:109530002046FFF759F80346CCE7002F3FF459AF18
:109540002046FFF767FE04210346C5E70023B6E780
:1095500037603E46002F3FF4E9AE1E78452ED8D145
:109560000133019EE360E1E64E1C2046E660FFF712
:109570001FF8061EBFF67EAF0026D7E60131204653
:10958000E160FFF755F800283FF4CFAE41F64011F7
:109590000E22C0F600012046FEF7A2FD03468EE72C
:1095A000C2682DE9F0470E4611780446A1F1470C38
:1095B000DCF1000343EB0C05542914BF2B4645F0A6
:1095C0000103002B4FD1FFF77DFE003E18BF01269F
:1095D00000280CBF002606F001060546002E21D10A
:1095E000E3681B78D3F1010138BF0021002D08BFCB
:1095F00041F00101002933D1452B31D02B461A7897
:10960000042A00F0D180A2F11A0238D200212046AB
:10961000FFF748FC03212A4603462046BDE8F047F1
:10962000FEF70CBDA36813F0010FD9D10378A3F1A5
:109630001A0C5FFA8CFEBEF1020F06D86D682B780B
:10964000A3F11A01C8B20228F8D9022B08D1AB68DD
:1096500000E05B6818781A38C2B2022AF9D9AB6008
:109660002846BDE8F087016B143101631378542B51
:1096700025D0472B0AD000252846BDE8F087022ACE
:10968000C4D85B68002BBAD11946C0E7511CC16031
:109690005578002DE4D00232522DC26000F08A814C
:1096A00000F29281412DE6D10021FFF779FF1521CB
:1096B000002302462046BDE8F047FEF7BFBC531C1E
:1096C000C3605578002DCBD0433D5A1CC260332D6A
:1096D000D1D801A353F825F05F99000877960008C8
:1096E000779600084B99000877960008779600084F
:1096F00037990008239900087796000877960008A4
:109700007796000877960008779600087796000805
:1097100077960008779600080F990008F7980008D8
:1097200077960008DF98000877960008779600087B
:1097300077960008779600087796000877960008D5
:1097400077960008779600087796000877960008C5
:109750007796000877960008B19800087796000879
:109760007796000877960008779600088F9800088B
:109770007796000877960008779600087796000895
:109780007796000877960008779600087796000885
:109790007796000877960008779600087796000875
:1097A000779600087F9800085B68002B65D01878D2
:1097B000421E2D2A61D801A151F822F075980008A7
:1097C000759800087B9800087B9800087B98000833
:1097D0007B9800080D9600080D9600087B980008FD
:1097E0007B9800087B9800087B9800087B9800080D
:1097F0007B9800087B9800087B9800087B980008FD
:109800007B9800087B9800087B9800087B980008EC
:109810007B9800087B9800087B9800087B980008DC
:109820007B9800087B9800087B9800087B980008CC
:109830007B9800087B9800087B9800087B980008BC
:109840007B9800087B9800087B9800087B980008AC
:109850007B9800087B9800087B9800087B9800089C
:109860007B9800087B9800087B9800087B9800088C
:109870000D9600089B68002B99D10121C7E676213F
:10988000FEF768FE002840F089800546E8E668217A
:10989000FEF760FE0028F8D000212046FFF780FE8A
:1098A0000F21002302462046BDE8F047FEF7C6BB65
:1098B0000021FEF74FFE0028E7D020460021FEF7EA
:1098C00049FE0028E1D000212046FFF769FE112162
:1098D000002302462046BDE8F047FEF7AFBB05393E
:1098E0000163FEF703FF0921002302462046BDE87D
:1098F000F047FEF7A3BB0A390163FEF7F7FE0A2122
:10990000002302462046BDE8F047FEF797BBFEF76E
:10991000EDFE0D21002302462046BDE8F047FEF78C
:109920008DBBFEF7E3FE1221002302462046BDE870
:10993000F047FEF783BBFEF7D9FE0C210023024659
:109940002046BDE8F047FEF779BBFEF7CFFE0E21BB
:10995000002302462046BDE8F047FEF76FBBFEF746
:10996000C5FE064604F10C00FEF7CAFD0028FFF60E
:1099700082AEE36818785F287FF47DAE013320461D
:10998000E360FEF7B3FE256B0B21334605352563F7
:1099900002462046BDE8F047FEF750BB00212046B6
:1099A000FFF7FEFD1021002302462046BDE8F047E8
:1099B000FEF744BBFFF786FC142100230246204635
:1099C000BDE8F047FEF73ABB562D51D0722D7FF41B
:1099D00052AE0C30FEF794FD01287FF74CAEE568DF
:1099E0002B78002B3FF447AE01355F2BE5607FF409
:1099F00042AE461E4FF000084FF00C094FF0390AF6
:109A00002A78002A59D0242A3CD0002716F0010FCA
:109A10002B4605D10137B7420BDB0EE0242A0CD0D0
:109A20000137B74209DA13F8012F32B1242A04D0E2
:109A3000013713F8012F002AF0D129463A46204673
:109A4000FEF74EFBE268D519E560034600283FF4B7
:109A50001CAFF61BB8F1000F31D19846002ECFDCB9
:109A60002046372142460023BDE8F047FEF7E6BA1C
:109A7000FFF728FC1321002302462046BDE8F047EB
:109A8000FEF7DCBA6B78532B2AD05F2B26D0242B21
:109A90007FF4F1AD6369A06983421ADA09FB03F12F
:109AA00020695D1C6561431813D0E568023E00F82B
:109AB00001A05A600235E560CCE71546D0E5424684
:109AC00020463821FEF7BAFA80460028C6D105465E
:109AD000C6E5E16800258B1CE360C1E52E22D9E7CD
:109AE0002F22D7E7C268034610785F2802D021B141
:109AF000002070470132DA6010785A28F8D101321C
:109B00001846DA604CE500BFC36870B504461A78A1
:109B10004C2A01D0002070BD591CC16093F801C0CF
:109B2000ACF15F02D2F1000E4EEB0201BCF15A0F14
:109B300014BF0B4641F0010353B10021FFF7D2FFE0
:109B4000E36893F800C0BCF1450F2CD0002070BD35
:109B5000FEF7CCFD0546002836D00678232E2AD005
:109B6000E16808786E2821D0352645282DD00028B8
:109B7000EDD04B1C01E00028E9D0E3601A4613F851
:109B8000010B4528F7D1521A2046FEF7A9FA3146B3
:109B90002A4603462046FEF751FAE36893F800C0D0
:109BA000BCF1450FD2D10133E36070BD01313626DF
:109BB000E1600878D9E74368187C0028D0D0226B90
:109BC0005968531A2363CBE770BD0022DCE700BF5E
:109BD000C268F0B50446137883B04C2B00F0848043
:109BE000542B00F08580732B51D0662B1ED0A3F12F
:109BF000300E5FFA8EFCBCF1090F32D96F2B02D107
:109C000053786E2B2BD02046FFF76AF9054650B1EA
:109C100006782C2E4DD02D2E6FD02E2E76D02C2EB9
:109C200000F096800025284603B0F0BD5578702DD1
:109C3000E9D1931CC360FEF7BBFC0028F2DB63692B
:109C4000A2699342EEDA03EB430122695D1C656170
:109C50008B00D518E7D068600620D054E3E70232C5
:109C6000C2602046FFF7C0F905460028DBD0E06857
:109C700001784929D7D12046FFF7CCFA04212A469A
:109C80000346204603B0BDE8F040FEF7D7B953784D
:109C9000722B47D0702BB6D1911CC160FFF798FF93
:109CA000412100230246204603B0BDE8F040FEF704
:109CB000C5B9476841F65411226BC0F60001BB6874
:109CC0003868D218931E23630FF056FA002840D14B
:109CD0002046FEF70BFD034620462F212A4603B0FF
:109CE000BDE8F040FEF7AAB903B0BDE8F0400BE7CD
:109CF00003B0BDE8F040FEF777BC4368022B4AD0C2
:109D0000032B28D0012B8DD12E2E06D1E36893F89A
:109D100000C0BCF15F0F00F09E802046FFF758FFA7
:109D20000346D9E70232C260FEF7E0FC0546204652
:109D3000FFF75AF90646E0680378492B66D02046BB
:109D400001212A46334603B0BDE8F040FEF776B95C
:109D50004768FB68D2E72046FFF73AFF06462046F1
:109D6000FFF736FF07462046FFF732FF34213A4619
:109D700003462046FEF762F9332132460346204669
:109D8000FEF75CF932212A460346204603B0BDE8BF
:109D9000F040FEF753B96E6820463768FFF718FFAA
:109DA00041F65811C0F60001064638460FF0E4F9B6
:109DB000002826D041F65C113846C0F600010FF0AD
:109DC000DBF940B141F660113846C0F600010FF0F2
:109DD000D3F900282CD12046FFF706F9E2680346A4
:109DE0001078492829D0312132462046FEF726F93D
:109DF00030212A460346204603B0BDE8F040FEF776
:109E00001DB9204600F02EF80346ECE72046FFF788
:109E100001FA0421324603462046FEF70FF90121DC
:109E20002A460346204603B0BDE8F040FEF706B9D7
:109E30002046FFF7CDFE0346D5E720460193FFF706
:109E4000E9F9019B04211A46074620463B46FEF7E6
:109E5000F5F80346C7E7591C2046E16000F002F818
:109E6000034639E7C368002270B582B00446019208
:109E70001978452918BF01AE08D101332A21C360E2
:109E8000134602B0BDE87040FEF7D8B82046FFF791
:109E90009FFE2A210023054620462A4675B1FEF77B
:109EA000CDF8306040B1E36800F108061A78452A21
:109EB000ECD10198591CE16002B070BD2846FBE767
:109EC0002DE9F84F044608460F460FF0A1FA8046E8
:109ED00000285CD0D4F8041100F1FF394FF0000ADB
:109EE00004F1040BFF2909F001093E786FD00B46FD
:109EF0000131012504EB030E4545C4F804118EF829
:109F0000046084F8086142D0B9F1000F29D0FF291C
:109F10007E5D6CD00B460131013504EB030C4545E9
:109F2000C4F804118CF8046084F8086119D16EE05B
:109F300004EB030C0135511CFF2AC4F8042113461D
:109F40008CF8046084F808617E5D22D0013504EB52
:109F5000030E4545C4F804118EF8046084F80861C6
:109F600033D0FF290B467E5D01F10102E0D1D4F828
:109F70000C315846D4F8102184F803A19847D4F83E
:109F80002401012200238118C4F82411D0E7BDE880
:109F9000F88F11465846D4F80C310135D4F8102109
:109FA00084F803A1984700230121D4F8242104EB6D
:109FB000030E454502EB0100C4F80411C4F8240166
:109FC0008EF8046084F80861CBD1BDE8F88FD4F82E
:109FD0000C315846D4F8102184F803A19847D4F8DE
:109FE0002451012153466A18C4F8242181E7D4F88A
:109FF0000C315846D4F8102184F803A19847D4F8BE
:10A000002421294600235019C4F8240184E7BDE81F
:10A01000F88F00BF2DE9F04F0D469BB00446002994
:10A0200000F0F780D0F81C01002840F0EA800B789F
:10A03000412B00F2EA8001A050F823F01BA2000897
:10A04000C3B80008C3B8000889B6000873C1000887
:10A050000DB600089BB400088FB4000869B400086E
:10A06000D3B3000811B2000899B10008D1B00008BC
:10A0700059B000082DBE0008A3BD0008FDC10008AE
:10A08000E1AF0008E3AC00084DAC0008D5AB000818
:10A0900045AA000835AE0008F9AD0008F9AD000882
:10A0A000F9AD00080DAA00080DAA00080DAA0008C5
:10A0B0000DAA00080DAA00080DAA00080DAA0008A4
:10A0C0000DAA00080DAA00084DA900089DB30008BC
:10A0D00019B300086DBF0008EDB20008EBBB000823
:10A0E000EDB2000887BB000887BB000897C30008D3
:10A0F00065A800087DC000084DBF000845A1000804
:10A100000BA2000835BB00080BA200080BA2000838
:10A110006FA400086FA40008DDA20008C7B3000800
:10A12000A9B30008CFBC0008DBA4000857B20008A0
:10A130000BA6000883A600080BA20008F3B80008CD
:10A1400001AF00088B6893F800C0BCF1310F5CD1FF
:10A150004A6816782C2E04F01D845968204606F0B3
:10A1600043FED5F8048041F60421C0F60001D8F87A
:10A1700004301F6838460EF0FFFF0646002843F003
:10A180006180D4F80411FF2904F01A8704EB010C54
:10A190005B204B1C84F808018CF804002046C4F8AE
:10A1A0000431A9688968FFF735FFD4F80411FF2945
:10A1B00004F0F58604EB010E5D20013184F80801FE
:10A1C0008EF80400C4F804116B6893F800C0BCF169
:10A1D0002C0F16D15B689968012912D15868037851
:10A1E0003E2B0ED1D4F80411FF2904F0C38704EBF1
:10A1F000010E2920013184F808018EF80400C4F80A
:10A2000004111BB0BDE8F08F009C0122C4F81C2192
:10A21000F7E70123C0F81C31F3E7226812F00409C4
:10A2200042F001848F68D1F80480002FE9D0D4F87F
:10A23000041107F1FF3B04F1040A0BF0010BFF29A5
:10A2400098F8006004F036850B460131012504EBD7
:10A25000030CAF42C4F804118CF8046084F8086160
:10A26000CFD0BBF1000F11D0FF2918F8056004F022
:10A27000A7850B460131013504EB030CAF42C4F84E
:10A2800004118CF8046084F80861BAD0FF290B46E9
:10A2900018F8056001F1010202F0D38504EB030C0C
:10A2A0000135511CFF2AC4F8042113468CF80460C0
:10A2B00084F8086118F80560DDD111465046D4F8DD
:10A2C0000C31D4F8102184F803919847D4F8240174
:10A2D000012100234218C4F82421CCE7D4F804114A
:10A2E000FF2903F01481621801316A20FF29C4F8A4
:10A2F0000411107184F8080103F02C8704EB010E9F
:10A3000001316123FF29C4F804118EF8043084F868
:10A31000083103F00C8704EB010C01317623FF298F
:10A32000C4F804118CF8043084F8083103F0EC868A
:10A3300004EB010E01316123FF29C4F804118EF8EA
:10A34000043084F8083103F0CC8604EB010C0131B1
:10A350002023FF29C4F804118CF8043084F8083154
:10A3600003F02A8004EB010E01317223FF29C4F8A7
:10A3700004118EF8043084F8083103F00A8004EBED
:10A38000010C01316523FF29C4F804118CF8043055
:10A3900084F8083102F0EA8704EB010E01317323DF
:10A3A000FF29C4F804118EF8043084F8083102F053
:10A3B000CA8704EB010C01316F23FF29C4F8041193
:10A3C0008CF8043084F8083102F0AA8704EB010EFF
:10A3D00001317523FF29C4F804118EF8043084F884
:10A3E000083102F08A8704EB010C01317223FF2946
:10A3F000C4F804118CF8043084F8083102F06A873C
:10A4000004EB010E01316323FF29C4F804118EF817
:10A41000043084F8083102F04A876218652301315C
:10A42000FF29C4F80411137184F808310ED0481CB8
:10A4300004EB010CC4F80401202120468CF8041020
:10A4400084F808116968FFF7E5FDDAE60026201DAB
:10A45000D4F80C31D4F8102184F803619847D4F86B
:10A460002421012031461318C4F82431E0E74A685A
:10A470001678232E02F086850026D4F80411FF29D1
:10A4800004F09781481C04EB010CC4F80401282156
:10A4900020468CF8041084F808116968FFF7BAFDAB
:10A4A000D4F80431FF2B04F09681591C04EB030C03
:10A4B000292084F808018CF8040095F800E0C4F81D
:10A4C0000411BEF1360F02F0CB85082E02F0828512
:10A4D0002046A968FFF79EFD93E6D4F80411FF29F2
:10A4E00003F0D08604EB010E01316420FF29C4F88B
:10A4F00004118EF8040084F8080103F0B08604EB20
:10A50000010C01316520FF29C4F804118CF8040006
:10A5100084F8080103F0908604EB010E01316320FA
:10A52000FF29C4F804118EF8040084F8080103F030
:10A53000708604EB010C01316C20FF29C4F8041172
:10A540008CF8040084F8080103F0508604EB010E37
:10A5500001317420FF29C4F804118EF8040084F836
:10A56000080103F0308604EB010C01317920FF294A
:10A57000C4F804118CF8040084F8080103F0108674
:10A5800004EB010E01317020FF29C4F804118EF88C
:10A59000040084F8080103F0F08504EB010C01319C
:10A5A0006520FF29C4F804118CF8040084F8080120
:10A5B00003F0678204EB010E01312020FF29C4F86B
:10A5C00004118EF8040084F8080102F02980481C68
:10A5D00004EB010CC4F80401282120468CF8041077
:10A5E00084F808116968FFF715FDD4F80411FF29F4
:10A5F00002F004864A1C04EB010E2920C4F8042151
:10A600008EF8040084F80801FBE5CF4E4FF0000AF5
:10A61000D4F8041104F1040B06F11C08A94619E052
:10A6200004EB030E6E1C511CFF2AC4F804211346D0
:10A630008EF8047084F808716D7802F0128104EBD2
:10A64000030C4645C4F8041184F808518CF80450F2
:10A6500002F06580751CFF290B46777801F1010235
:10A66000DED1D4F80C315846D4F8102184F803A177
:10A670009847D4F8246101220023B118C4F82411AA
:10A68000CEE7D4F80411FF2903F0348462180131B5
:10A690007B27FF29C4F80411177184F8087103F0AF
:10A6A000168404EB010C01316C20FF29C4F804115D
:10A6B0008CF8040084F8080103F0F68304EB010E23
:10A6C00001316123FF29C4F804118EF8043084F8A5
:10A6D000083103F0D68304EB010C01316D20FF2912
:10A6E000C4F804118CF8040084F8080103F0B68360
:10A6F00004EB010E01316227FF29C4F804118EF822
:10A70000047084F8087103F0968304EB010C0131A6
:10A710006420FF29C4F804118CF8040084F80801AF
:10A7200003F0768304EB010E01316123FF29C4F8A5
:10A7300004118EF8043084F8083101F05F87481C5A
:10A7400004EB010CC4F80401282120468CF8041005
:10A7500084F808116968FFF75DFCD4F80411FF293B
:10A7600003F0858204EB010E01312920FF29C4F892
:10A7700004118EF8040084F8080101F01C874A1CBB
:10A7800061182320C4F8042108AF087141F628217C
:10A7900084F80801C0F60001AA68384601320EF0BC
:10A7A000C3FC38460EF034FE002801F0BF87D4F811
:10A7B00004116FEA070A3E183D46FF290AEB060915
:10A7C0004FF0000804F1040A09F0010915F8017BB3
:10A7D00004F025800B46013104EB030EB542C4F8AA
:10A7E000041184F808718EF8047001F0A187B9F1A2
:10A7F000000F11D0FF2915F8017B04F082800B4671
:10A80000013104EB030CB542C4F8041184F808715B
:10A810008CF8047001F08C874A1CFF290B4615F850
:10A82000017B02F0CD8004EB030C511CFF2AC4F81D
:10A8300004218CF80470134684F8087115F8017B24
:10A84000DFD1D4F80C315046114684F80381D4F896
:10A8500010219847D4F82421012100235018C4F86E
:10A860002401CEE7D4F80411FF2902F0588704EB45
:10A87000010E01316F20FF29C4F804118EF8040085
:10A8800084F8080102F0388704EB010C01317020D4
:10A89000FF29C4F804118CF8040084F8080102F0C0
:10A8A000188704EB010E01316520FF29C4F804115B
:10A8B0008EF8040084F8080102F0F88604EB010C1D
:10A8C00001317220FF29C4F804118CF8040084F8C7
:10A8D000080102F0D88604EB010E01316120FF2946
:10A8E000C4F804118EF8040084F8080102F0B88658
:10A8F00004EB010C01317420FF29C4F804118CF819
:10A90000040084F8080102F0988604EB010E01317E
:10A910006F20FF29C4F804118EF8040084F80801A0
:10A9200002F0788604EB010C01317220FF29C4F893
:10A9300004118CF8040084F8080101F02A86481CF0
:10A940006218202300F098BD4F1A0008276817F0FE
:10A95000040942F0F1804968D1F804800F68B8F129
:10A96000000F3FF44EACD4F8041108F1FF3504F1A8
:10A97000040A05F0010BFF293E7804F077810B46AD
:10A9800001310125E218A845C4F80411167184F8B4
:10A9900008613FF436ACBBF1000F11D0FF297E5D9A
:10A9A00004F027820B460131013504EB030CA84566
:10A9B000C4F804118CF8046084F808613FF421ACF9
:10A9C000FF290B467E5D01F1010202F0298204EBB2
:10A9D000030C0135511CFF2AC4F8042113468CF8DE
:10A9E000046084F808617E5DDED111465046D4F8DB
:10A9F0000C31D4F8102184F803919847D4F824211D
:10AA0000012100235018C4F82401CDE7D4F818110F
:10AA10001AAAD4F814312046099542F8481DC4F802
:10AA20001821696800220B930A92FFF7F3FA0A9B38
:10AA30001BB92046294604F0EFFB0898C4F818011A
:10AA4000FFF7DFBBD4F80411FF2902F0B4866218C7
:10AA500001316823FF29C4F80411137184F8083107
:10AA600002F0968604EB010E01316923FF29C4F838
:10AA700004118EF8043084F8083102F0E78604EB04
:10AA8000010C01316426FF29C4F804118CF804601C
:10AA900084F8086102F0C88604EB010E01316423DA
:10AAA000FF29C4F804118EF8043084F8083102F04C
:10AAB000A88604EB010C01316520FF29C4F80411BC
:10AAC0008CF8040084F8080102F0888604EB010E7B
:10AAD00001316E20FF29C4F804118EF8040084F8B7
:10AAE000080102F0FF8604EB010C01312020FF2950
:10AAF000C4F804118CF8040084F8080102F0DF8621
:10AB000004EB010E01316120FF29C4F804118EF815
:10AB1000040084F8080102F0BF8604EB010C013147
:10AB20006C20FF29C4F804118CF8040084F8080193
:10AB300002F09F8604EB010E01316920FF29C4F861
:10AB400004118EF8040084F8080102F0F18604EB89
:10AB5000010C01316120FF29C4F804118CF80400B4
:10AB600084F8080102F0D186621873230131FF29AD
:10AB7000C4F80411137184F8083101F04D8604EB18
:10AB8000010E01312023FF29C4F804118EF804308E
:10AB900084F8083101F02D8604EB010C01316623A5
:10ABA000FF29C4F804118CF8043084F8083101F04E
:10ABB0000D8604EB010E01316F23FF29C4F8041147
:10ABC0008EF8043084F8083101F0ED8562187223A4
:10ABD000013125E4C84E4FF0000AD4F8041104F105
:10ABE000040B06F11808A94619E004EB030C6E1CCF
:10ABF000511CFF2AC4F8042113468CF8047084F811
:10AC000008716D7801F01B8604EB030E4645C4F80D
:10AC1000041184F808518EF8045001F08085751CE9
:10AC2000FF290B46777801F10102DED15846D4F8AE
:10AC3000102184F803A1D4F80C61B047D4F8241192
:10AC4000012200238818C4F82401CEE7DFF8AC8283
:10AC50004FF0000AD4F8041104F1040B4646FF2912
:10AC600016F8127D02F077860B46013104EB0309DA
:10AC7000C4F8041184F8087189F80470A94619E031
:10AC800004EB030E6E1C511CFF2AC4F8042113466A
:10AC90008EF8047084F808716D7801F0188604EB62
:10ACA000030C4645C4F8041184F808518CF804508C
:10ACB00001F03585751CFF290B46777801F10102FB
:10ACC000DED1D4F80C315846D4F8102184F803A111
:10ACD0009847D4F8246101220023B118C4F8241144
:10ACE000CEE7D4F80411FF2902F0FE8304EB010C37
:10ACF00001316A20FF29C4F804118CF8040084F89B
:10AD0000080102F0DE8304EB010E01316120FF290E
:10AD1000C4F804118EF8040084F8080102F0BE8320
:10AD200004EB010C01317620FF29C4F804118CF8E2
:10AD3000040084F8080102F09E8304EB010E013147
:10AD40006120FF29C4F804118EF8040084F808017A
:10AD500002F07E8304EB010C01312020FF29C4F8AE
:10AD600004118CF8040084F8080102F05E8304EBFF
:10AD7000010E01314320FF29C4F804118EF80400AC
:10AD800084F8080102F03E8304EB010C01316C20D1
:10AD9000FF29C4F804118CF8040084F8080102F0BB
:10ADA0001E8304EB010E01316120FF29C4F8041158
:10ADB0008EF8040084F8080102F0F38304EB010C20
:10ADC00001317326FF29C4F804118CF8046084F85B
:10ADD00008617FF4C9AED4F80C310022201D84F83C
:10ADE0000321D4F810219847D4F824310121267189
:10ADF0005818C4F82401C2E6D4F8181100293FF409
:10AE000007AE0A4603E01268002A3FF401AE9068DC
:10AE10000028F8D150680078A0F11706F6B2022E8B
:10AE20003FF6F6AD8342EED120466968FFF7F2F8AF
:10AE3000FFF7E7B98F68D1F80480002F3FF4E1A94C
:10AE4000D4F8041107F1FF394FF0000A04F1040BA4
:10AE5000FF2909F0010998F8006003F013850B46FB
:10AE60000131012504EB030CAF42C4F804118CF846
:10AE7000046084F808613FF4C4A9B9F1000F12D04E
:10AE8000FF2918F8056003F05B850B460131013599
:10AE900004EB030CAF42C4F804118CF8046084F88E
:10AEA00008613FF4AEA9FF290B4618F8056001F1CF
:10AEB000010201F0A78504EB030C0135511CFF2AA8
:10AEC000C4F8042113468CF8046084F8086118F86B
:10AED0000560DCD111465846D4F80C31D4F8102165
:10AEE00084F803A19847D4F82421012100235018A5
:10AEF000C4F82401CBE700BFE7190008E6190008F1
:10AF000020464968FDF73AFA002803F0878702785F
:10AF10002B2A7FF476A9416800293FF472A9002604
:10AF200007E090F800B0BBF12B0F06D1436823B1C6
:10AF30003E468068771C0028F3D1D5F804804FF096
:10AF4000000A2046C4F820A141467D1EFFF762F8A2
:10AF500056454FF0200905F0010B02F3A5800125AD
:10AF6000BD423FF44EA9BBF1000F0CD0C4F82051F4
:10AF700020464146FFF74EF8AE4202F3F38001351A
:10AF8000BD423FF43EA9C4F8205120464146FFF798
:10AF900041F8AE4201F3DB8301352046C4F820516D
:10AFA0004146FFF737F8AE42E9DDD4F80411FF2936
:10AFB00002F06B8104EB010E01312C20FF29C4F853
:10AFC00004118EF8040084F8080101F0BF824B1CC4
:10AFD0006118C4F8043184F8089181F80490CEE730
:10AFE000C94E4FF0000AD4F8041104F1040B06F125
:10AFF0001A08A94619E004EB030E6E1C511CFF2A27
:10B00000C4F8042113468EF8047084F808716D7832
:10B0100001F04B8404EB030E4645C4F8041184F898
:10B0200008518EF8045001F07A83751CFF290B46F5
:10B03000777801F10102DED1D4F80C315846D4F80A
:10B04000102184F803A19847D4F824110122002389
:10B050008E18C4F82461CEE7AC4E4FF0000AD4F845
:10B06000041104F1040B06F11208A94619E004EBDF
:10B07000030E6E1C511CFF2AC4F8042113468EF8DF
:10B08000047084F808716D7801F0FD8304EB030C03
:10B090004645C4F8041184F808518CF8045001F0B6
:10B0A0003E83751CFF290B46777801F10102DED142
:10B0B000D4F80C315846D4F8102184F803A19847ED
:10B0C000D4F8246101220023B118C4F82411CEE77A
:10B0D000D4F80411FF2902F0758604EB010C01314C
:10B0E0007420FF29C4F804118CF8040084F80801C6
:10B0F00002F0558604EB010E01317920FF29C4F8D6
:10B1000004118EF8040084F8080102F0358604EB7F
:10B11000010C01317020FF29C4F804118CF80400DF
:10B1200084F8080102F0158604EB010E0131652058
:10B13000FF29C4F804118EF8040084F8080102F015
:10B14000F58504EB010C01316920FF29C4F80411D5
:10B150008CF8040084F8080102F0D58504EB010E98
:10B1600001316E20FF29C4F804118EF8040084F820
:10B17000080102F0B58504EB010C01316620FF29BE
:10B18000C4F804118CF8040084F8080102F09585D5
:10B1900062186F230131EAE45D4E4FF0000AD4F8E3
:10B1A000041104F1040B06F11808A94619E004EB98
:10B1B000030C6E1C511CFF2AC4F8042113468CF8A2
:10B1C000047084F808716D7801F0938304EB030E2A
:10B1D0004645C4F8041184F808518EF8045001F073
:10B1E0000885751CFF290B46777801F10102DED135
:10B1F000D4F80C315846D4F8102184F803A19847AC
:10B20000D4F8246101220023B118C4F82411CEE738
:10B21000D4F80411FF2902F0518704EB010C01312D
:10B220005623FF29C4F804118CF8043084F808313F
:10B2300002F0318704EB010E01315426FF29C4F8D6
:10B2400004118EF8046084F808613FF4C4AD6218FC
:10B25000542301318BE4DFF8BC804FF0000AD4F8AE
:10B26000041104F1040B4646FF2916F81C7D02F078
:10B2700087810B46013104EB0309C4F8041184F8FB
:10B28000087189F80470A94619E004EB030C6E1CE0
:10B29000511CFF2AC4F8042113468CF8047084F86A
:10B2A00008716D7801F0378304EB030E4645C4F84E
:10B2B000041184F808518EF8045001F03082751C96
:10B2C000FF290B46777801F10102DED1D4F80C3169
:10B2D0005846D4F8102184F803A19847D4F82401E3
:10B2E000012200238618C4F82461CEE7D4F818118F
:10B2F0001AAAD4F814312046099542F8481DC4F81A
:10B300001821A968FFF78EBBB71900088B19000830
:10B310006F1900084C1A0008226812F0200F41F043
:10B3200075856868002801F05185D4F818111AAAAB
:10B33000D4F814312046099542F8481DC4F8182164
:10B34000002269680B930A92FEF764FE089B0A9933
:10B35000C4F8183100297EF454AF206810F020069C
:10B360007EF44FAFD4F80411FF2903F03C8604EBC0
:10B37000010E2020013184F808018EF80400C4F881
:10B380000411002E7EF43DAF2046291D05F1080270
:10B39000D4F8183105F0EAFAFEF733BF20464968C1
:10B3A000FEF738FEFEF72DBFD4F804112D79FF29E2
:10B3B00001F036874B1C6118C4F8043184F8085139
:10B3C0000D71FEF71EBF49682046FEF723FEFFF70A
:10B3D0007FB8D4F80411FF2902F0098104EB010EB3
:10B3E00001317620FF29C4F804118EF8040084F896
